{
  "contractName": "Crowdfunding",
  "abi": [
    {
      "inputs": [
        {
          "internalType": "uint256",
          "name": "",
          "type": "uint256"
        }
      ],
      "name": "campaigns",
      "outputs": [
        {
          "internalType": "address",
          "name": "",
          "type": "address"
        }
      ],
      "stateMutability": "view",
      "type": "function",
      "constant": true
    },
    {
      "inputs": [
        {
          "internalType": "uint256",
          "name": "",
          "type": "uint256"
        }
      ],
      "name": "pTitles",
      "outputs": [
        {
          "internalType": "string",
          "name": "",
          "type": "string"
        }
      ],
      "stateMutability": "view",
      "type": "function",
      "constant": true
    },
    {
      "inputs": [],
      "name": "totalCampaigns",
      "outputs": [
        {
          "internalType": "uint256",
          "name": "",
          "type": "uint256"
        }
      ],
      "stateMutability": "view",
      "type": "function",
      "constant": true
    },
    {
      "inputs": [
        {
          "internalType": "uint256",
          "name": "minimumCon",
          "type": "uint256"
        },
        {
          "internalType": "string",
          "name": "campaignName",
          "type": "string"
        },
        {
          "internalType": "uint256",
          "name": "reqamount",
          "type": "uint256"
        }
      ],
      "name": "createFundraiser",
      "outputs": [],
      "stateMutability": "nonpayable",
      "type": "function"
    },
    {
      "inputs": [],
      "name": "retriveCampaigns",
      "outputs": [
        {
          "internalType": "address[]",
          "name": "",
          "type": "address[]"
        }
      ],
      "stateMutability": "view",
      "type": "function",
      "constant": true
    },
    {
      "inputs": [],
      "name": "retrivepTitles",
      "outputs": [
        {
          "internalType": "string[]",
          "name": "",
          "type": "string[]"
        }
      ],
      "stateMutability": "view",
      "type": "function",
      "constant": true
    }
  ],
  "bytecode": "0x60806040526000805534801561001457600080fd5b506127c4806100246000396000f3fe60806040523480156200001157600080fd5b50600436106200006a5760003560e01c80630218dbfc146200006f57806302932f561462000091578063141961bc14620000b357806395db4ab314620000e9578063c47a800d146200010b578063ca1a1d32146200012b575b600080fd5b6200007962000161565b60405162000088919062000702565b60405180910390f35b6200009b62000244565b604051620000aa919062000741565b60405180910390f35b620000d16004803603810190620000cb9190620007a3565b6200024a565b604051620000e091906200081a565b60405180910390f35b620000f36200028a565b60405162000102919062000905565b60405180910390f35b62000129600480360381019062000123919062000a7a565b6200031a565b005b620001496004803603810190620001439190620007a3565b6200041b565b60405162000158919062000b47565b60405180910390f35b60606002805480602002602001604051908101604052809291908181526020016000905b828210156200023b578382906000526020600020018054620001a79062000b9a565b80601f0160208091040260200160405190810160405280929190818152602001828054620001d59062000b9a565b8015620002265780601f10620001fa5761010080835404028352916020019162000226565b820191906000526020600020905b8154815290600101906020018083116200020857829003601f168201915b50505050508152602001906001019062000185565b50505050905090565b60005481565b600181815481106200025b57600080fd5b906000526020600020016000915054906101000a900473ffffffffffffffffffffffffffffffffffffffff1681565b606060018054806020026020016040519081016040528092919081815260200182805480156200031057602002820191906000526020600020905b8160009054906101000a900473ffffffffffffffffffffffffffffffffffffffff1673ffffffffffffffffffffffffffffffffffffffff1681526020019060010190808311620002c5575b5050505050905090565b6000838383336040516200032e90620004d0565b6200033d949392919062000bd0565b604051809103906000f0801580156200035a573d6000803e3d6000fd5b5090506001819080600181540180825580915050600190039060005260206000200160009091909190916101000a81548173ffffffffffffffffffffffffffffffffffffffff021916908373ffffffffffffffffffffffffffffffffffffffff160217905550600283908060018154018082558091505060019003906000526020600020016000909190919091509080519060200190620003fd929190620004de565b5060016000546200040f919062000c53565b60008190555050505050565b600281815481106200042c57600080fd5b906000526020600020016000915090508054620004499062000b9a565b80601f0160208091040260200160405190810160405280929190818152602001828054620004779062000b9a565b8015620004c85780601f106200049c57610100808354040283529160200191620004c8565b820191906000526020600020905b815481529060010190602001808311620004aa57829003601f168201915b505050505081565b611ade8062000cb183390190565b828054620004ec9062000b9a565b90600052602060002090601f0160209004810192826200051057600085556200055c565b82601f106200052b57805160ff19168380011785556200055c565b828001600101855582156200055c579182015b828111156200055b5782518255916020019190600101906200053e565b5b5090506200056b91906200056f565b5090565b5b808211156200058a57600081600090555060010162000570565b5090565b600081519050919050565b600082825260208201905092915050565b6000819050602082019050919050565b600081519050919050565b600082825260208201905092915050565b60005b83811015620005f6578082015181840152602081019050620005d9565b8381111562000606576000848401525b50505050565b6000601f19601f8301169050919050565b60006200062a82620005ba565b620006368185620005c5565b935062000648818560208601620005d6565b62000653816200060c565b840191505092915050565b60006200066c83836200061d565b905092915050565b6000602082019050919050565b60006200068e826200058e565b6200069a818562000599565b935083602082028501620006ae85620005aa565b8060005b85811015620006f05784840389528151620006ce85826200065e565b9450620006db8362000674565b925060208a01995050600181019050620006b2565b50829750879550505050505092915050565b600060208201905081810360008301526200071e818462000681565b905092915050565b6000819050919050565b6200073b8162000726565b82525050565b600060208201905062000758600083018462000730565b92915050565b6000604051905090565b600080fd5b600080fd5b6200077d8162000726565b81146200078957600080fd5b50565b6000813590506200079d8162000772565b92915050565b600060208284031215620007bc57620007bb62000768565b5b6000620007cc848285016200078c565b91505092915050565b600073ffffffffffffffffffffffffffffffffffffffff82169050919050565b60006200080282620007d5565b9050919050565b6200081481620007f5565b82525050565b600060208201905062000831600083018462000809565b92915050565b600081519050919050565b600082825260208201905092915050565b6000819050602082019050919050565b6200086e81620007f5565b82525050565b600062000882838362000863565b60208301905092915050565b6000602082019050919050565b6000620008a88262000837565b620008b4818562000842565b9350620008c18362000853565b8060005b83811015620008f8578151620008dc888262000874565b9750620008e9836200088e565b925050600181019050620008c5565b5085935050505092915050565b600060208201905081810360008301526200092181846200089b565b905092915050565b600080fd5b600080fd5b7f4e487b7100000000000000000000000000000000000000000000000000000000600052604160045260246000fd5b6200096d826200060c565b810181811067ffffffffffffffff821117156200098f576200098e62000933565b5b80604052505050565b6000620009a46200075e565b9050620009b2828262000962565b919050565b600067ffffffffffffffff821115620009d557620009d462000933565b5b620009e0826200060c565b9050602081019050919050565b82818337600083830152505050565b600062000a1362000a0d84620009b7565b62000998565b90508281526020810184848401111562000a325762000a316200092e565b5b62000a3f848285620009ed565b509392505050565b600082601f83011262000a5f5762000a5e62000929565b5b813562000a71848260208601620009fc565b91505092915050565b60008060006060848603121562000a965762000a9562000768565b5b600062000aa6868287016200078c565b935050602084013567ffffffffffffffff81111562000aca5762000ac96200076d565b5b62000ad88682870162000a47565b925050604062000aeb868287016200078c565b9150509250925092565b600082825260208201905092915050565b600062000b1382620005ba565b62000b1f818562000af5565b935062000b31818560208601620005d6565b62000b3c816200060c565b840191505092915050565b6000602082019050818103600083015262000b63818462000b06565b905092915050565b7f4e487b7100000000000000000000000000000000000000000000000000000000600052602260045260246000fd5b6000600282049050600182168062000bb357607f821691505b6020821081141562000bca5762000bc962000b6b565b5b50919050565b600060808201905062000be7600083018762000730565b818103602083015262000bfb818662000b06565b905062000c0c604083018562000730565b62000c1b606083018462000809565b95945050505050565b7f4e487b7100000000000000000000000000000000000000000000000000000000600052601160045260246000fd5b600062000c608262000726565b915062000c6d8362000726565b9250827fffffffffffffffffffffffffffffffffffffffffffffffffffffffffffffffff0382111562000ca55762000ca462000c24565b5b82820190509291505056fe60806040523480156200001157600080fd5b5060405162001ade38038062001ade8339818101604052810190620000379190620003a5565b83600181905550806000806101000a81548173ffffffffffffffffffffffffffffffffffffffff021916908373ffffffffffffffffffffffffffffffffffffffff160217905550600060078190555060006008819055508260039080519060200190620000a6929190620000b8565b5081600481905550505050506200049b565b828054620000c69062000465565b90600052602060002090601f016020900481019282620000ea576000855562000136565b82601f106200010557805160ff191683800117855562000136565b8280016001018555821562000136579182015b828111156200013557825182559160200191906001019062000118565b5b50905062000145919062000149565b5090565b5b80821115620001645760008160009055506001016200014a565b5090565b6000604051905090565b600080fd5b600080fd5b6000819050919050565b62000191816200017c565b81146200019d57600080fd5b50565b600081519050620001b18162000186565b92915050565b600080fd5b600080fd5b6000601f19601f8301169050919050565b7f4e487b7100000000000000000000000000000000000000000000000000000000600052604160045260246000fd5b6200020c82620001c1565b810181811067ffffffffffffffff821117156200022e576200022d620001d2565b5b80604052505050565b60006200024362000168565b905062000251828262000201565b919050565b600067ffffffffffffffff821115620002745762000273620001d2565b5b6200027f82620001c1565b9050602081019050919050565b60005b83811015620002ac5780820151818401526020810190506200028f565b83811115620002bc576000848401525b50505050565b6000620002d9620002d38462000256565b62000237565b905082815260208101848484011115620002f857620002f7620001bc565b5b620003058482856200028c565b509392505050565b600082601f830112620003255762000324620001b7565b5b815162000337848260208601620002c2565b91505092915050565b600073ffffffffffffffffffffffffffffffffffffffff82169050919050565b60006200036d8262000340565b9050919050565b6200037f8162000360565b81146200038b57600080fd5b50565b6000815190506200039f8162000374565b92915050565b60008060008060808587031215620003c257620003c162000172565b5b6000620003d287828801620001a0565b945050602085015167ffffffffffffffff811115620003f657620003f562000177565b5b62000404878288016200030d565b93505060406200041787828801620001a0565b92505060606200042a878288016200038e565b91505092959194509250565b7f4e487b7100000000000000000000000000000000000000000000000000000000600052602260045260246000fd5b600060028204905060018216806200047e57607f821691505b6020821081141562000495576200049462000436565b5b50919050565b61163380620004ab6000396000f3fe6080604052600436106100e85760003560e01c80636efa711e1161008a578063937e09b111610059578063937e09b114610304578063a6b2c4371461032f578063c3e20c9f1461034b578063d7bb99ba14610376576100e8565b80636efa711e1461023157806371d636711461026e57806381d12c58146102995780638a9cfd55146102db576100e8565b80635357a94a116100c65780635357a94a1461017e5780635a9b0b89146101a9578063663c2269146101db578063688ae49614610206576100e8565b80631f6d4942146100ed57806348b9ef401461012a5780634df9d55814610155575b600080fd5b3480156100f957600080fd5b50610114600480360381019061010f9190610e6d565b610380565b6040516101219190610eb6565b60405180910390f35b34801561013657600080fd5b5061013f6103a0565b60405161014c9190610eea565b60405180910390f35b34801561016157600080fd5b5061017c60048036038101906101779190610f5d565b6103a6565b005b34801561018a57600080fd5b50610193610626565b6040516101a09190610fac565b60405180910390f35b3480156101b557600080fd5b506101be61064a565b6040516101d2989796959493929190611060565b60405180910390f35b3480156101e757600080fd5b506101f0610730565b6040516101fd9190610eea565b60405180910390f35b34801561021257600080fd5b5061021b610736565b6040516102289190610eea565b60405180910390f35b34801561023d57600080fd5b50610258600480360381019061025391906110e5565b61073c565b6040516102659190610eb6565b60405180910390f35b34801561027a57600080fd5b506102836107a7565b6040516102909190610eea565b60405180910390f35b3480156102a557600080fd5b506102c060048036038101906102bb9190611125565b6107ad565b6040516102d29695949392919061118e565b60405180910390f35b3480156102e757600080fd5b5061030260048036038101906102fd9190611357565b61089e565b005b34801561031057600080fd5b506103196109e6565b6040516103269190610eea565b60405180910390f35b61034960048036038101906103449190611125565b6109ec565b005b34801561035757600080fd5b50610360610beb565b60405161036d91906113c6565b60405180910390f35b61037e610c79565b005b60056020528060005260406000206000915054906101000a900460ff1681565b60045481565b6001600560003373ffffffffffffffffffffffffffffffffffffffff1673ffffffffffffffffffffffffffffffffffffffff16815260200190815260200160002060009054906101000a900460ff1660ff161461040257600080fd5b6001600560003373ffffffffffffffffffffffffffffffffffffffff1673ffffffffffffffffffffffffffffffffffffffff16815260200190815260200160002060009054906101000a900460ff1660ff161461045e57600080fd5b60016006600084815260200190815260200160002060040160003373ffffffffffffffffffffffffffffffffffffffff1673ffffffffffffffffffffffffffffffffffffffff16815260200190815260200160002060009054906101000a900460ff1660ff1614158015610536575060026006600084815260200190815260200160002060040160003373ffffffffffffffffffffffffffffffffffffffff1673ffffffffffffffffffffffffffffffffffffffff16815260200190815260200160002060009054906101000a900460ff1660ff1614155b61053f57600080fd5b806006600084815260200190815260200160002060040160003373ffffffffffffffffffffffffffffffffffffffff1673ffffffffffffffffffffffffffffffffffffffff16815260200190815260200160002060006101000a81548160ff021916908360ff16021790555060018160ff1614156105e8576006600083815260200190815260200160002060050160008154809291906105de90611417565b9190505550610622565b60028160ff1614156106215760066000838152602001908152602001600020600601600081548092919061061b90611417565b91905055505b5b5050565b60008054906101000a900473ffffffffffffffffffffffffffffffffffffffff1681565b60606000806000806000806000600360008054906101000a900473ffffffffffffffffffffffffffffffffffffffff16476001546002546004546007546008548780546106969061148f565b80601f01602080910402602001604051908101604052809291908181526020018280546106c29061148f565b801561070f5780601f106106e45761010080835404028352916020019161070f565b820191906000526020600020905b8154815290600101906020018083116106f257829003601f168201915b50505050509750975097509750975097509750975097509091929394959697565b60075481565b60025481565b60006006600084815260200190815260200160002060040160008373ffffffffffffffffffffffffffffffffffffffff1673ffffffffffffffffffffffffffffffffffffffff16815260200190815260200160002060009054906101000a900460ff16905092915050565b60085481565b60066020528060005260406000206000915090508060000160009054906101000a900473ffffffffffffffffffffffffffffffffffffffff16908060010180546107f69061148f565b80601f01602080910402602001604051908101604052809291908181526020018280546108229061148f565b801561086f5780601f106108445761010080835404028352916020019161086f565b820191906000526020600020905b81548152906001019060200180831161085257829003601f168201915b5050505050908060020160009054906101000a900460ff16908060030154908060050154908060060154905086565b60008054906101000a900473ffffffffffffffffffffffffffffffffffffffff1673ffffffffffffffffffffffffffffffffffffffff163373ffffffffffffffffffffffffffffffffffffffff16146108f657600080fd5b600a6008541061090557600080fd5b6000600660006007600081548092919061091e90611417565b919050558152602001908152602001600020905060008160050181905550600081600601819055508381600101908051906020019061095e929190610d58565b5060008160020160006101000a81548160ff021916908315150217905550828160030181905550818160000160006101000a81548173ffffffffffffffffffffffffffffffffffffffff021916908373ffffffffffffffffffffffffffffffffffffffff160217905550600860008154809291906109db90611417565b919050555050505050565b60015481565b60008054906101000a900473ffffffffffffffffffffffffffffffffffffffff1673ffffffffffffffffffffffffffffffffffffffff163373ffffffffffffffffffffffffffffffffffffffff1614610a4457600080fd5b60028054610a5291906114f0565b60066000838152602001908152602001600020600501541015610a7457600080fd5b600015156006600083815260200190815260200160002060020160009054906101000a900460ff16151514610aa857600080fd5b60006006600083815260200190815260200160002060000160009054906101000a900473ffffffffffffffffffffffffffffffffffffffff1673ffffffffffffffffffffffffffffffffffffffff166006600084815260200190815260200160002060030154604051610b1a90611552565b60006040518083038185875af1925050503d8060008114610b57576040519150601f19603f3d011682016040523d82523d6000602084013e610b5c565b606091505b5050905080610ba0576040517f08c379a0000000000000000000000000000000000000000000000000000000008152600401610b97906115b3565b60405180910390fd5b60016006600084815260200190815260200160002060020160006101000a81548160ff02191690831515021790555060086000815480929190610be2906115d3565b91905055505050565b60038054610bf89061148f565b80601f0160208091040260200160405190810160405280929190818152602001828054610c249061148f565b8015610c715780601f10610c4657610100808354040283529160200191610c71565b820191906000526020600020905b815481529060010190602001808311610c5457829003601f168201915b505050505081565b600154341015610c8857600080fd5b6001600560003373ffffffffffffffffffffffffffffffffffffffff1673ffffffffffffffffffffffffffffffffffffffff16815260200190815260200160002060009054906101000a900460ff1660ff161415610ce557600080fd5b6001600560003373ffffffffffffffffffffffffffffffffffffffff1673ffffffffffffffffffffffffffffffffffffffff16815260200190815260200160002060006101000a81548160ff021916908360ff16021790555060026000815480929190610d5190611417565b9190505550565b828054610d649061148f565b90600052602060002090601f016020900481019282610d865760008555610dcd565b82601f10610d9f57805160ff1916838001178555610dcd565b82800160010185558215610dcd579182015b82811115610dcc578251825591602001919060010190610db1565b5b509050610dda9190610dde565b5090565b5b80821115610df7576000816000905550600101610ddf565b5090565b6000604051905090565b600080fd5b600080fd5b600073ffffffffffffffffffffffffffffffffffffffff82169050919050565b6000610e3a82610e0f565b9050919050565b610e4a81610e2f565b8114610e5557600080fd5b50565b600081359050610e6781610e41565b92915050565b600060208284031215610e8357610e82610e05565b5b6000610e9184828501610e58565b91505092915050565b600060ff82169050919050565b610eb081610e9a565b82525050565b6000602082019050610ecb6000830184610ea7565b92915050565b6000819050919050565b610ee481610ed1565b82525050565b6000602082019050610eff6000830184610edb565b92915050565b610f0e81610ed1565b8114610f1957600080fd5b50565b600081359050610f2b81610f05565b92915050565b610f3a81610e9a565b8114610f4557600080fd5b50565b600081359050610f5781610f31565b92915050565b60008060408385031215610f7457610f73610e05565b5b6000610f8285828601610f1c565b9250506020610f9385828601610f48565b9150509250929050565b610fa681610e2f565b82525050565b6000602082019050610fc16000830184610f9d565b92915050565b600081519050919050565b600082825260208201905092915050565b60005b83811015611001578082015181840152602081019050610fe6565b83811115611010576000848401525b50505050565b6000601f19601f8301169050919050565b600061103282610fc7565b61103c8185610fd2565b935061104c818560208601610fe3565b61105581611016565b840191505092915050565b600061010082019050818103600083015261107b818b611027565b905061108a602083018a610f9d565b6110976040830189610edb565b6110a46060830188610edb565b6110b16080830187610edb565b6110be60a0830186610edb565b6110cb60c0830185610edb565b6110d860e0830184610edb565b9998505050505050505050565b600080604083850312156110fc576110fb610e05565b5b600061110a85828601610f1c565b925050602061111b85828601610e58565b9150509250929050565b60006020828403121561113b5761113a610e05565b5b600061114984828501610f1c565b91505092915050565b600061115d82610e0f565b9050919050565b61116d81611152565b82525050565b60008115159050919050565b61118881611173565b82525050565b600060c0820190506111a36000830189611164565b81810360208301526111b58188611027565b90506111c4604083018761117f565b6111d16060830186610edb565b6111de6080830185610edb565b6111eb60a0830184610edb565b979650505050505050565b600080fd5b600080fd5b7f4e487b7100000000000000000000000000000000000000000000000000000000600052604160045260246000fd5b61123882611016565b810181811067ffffffffffffffff8211171561125757611256611200565b5b80604052505050565b600061126a610dfb565b9050611276828261122f565b919050565b600067ffffffffffffffff82111561129657611295611200565b5b61129f82611016565b9050602081019050919050565b82818337600083830152505050565b60006112ce6112c98461127b565b611260565b9050828152602081018484840111156112ea576112e96111fb565b5b6112f58482856112ac565b509392505050565b600082601f830112611312576113116111f6565b5b81356113228482602086016112bb565b91505092915050565b61133481611152565b811461133f57600080fd5b50565b6000813590506113518161132b565b92915050565b6000806000606084860312156113705761136f610e05565b5b600084013567ffffffffffffffff81111561138e5761138d610e0a565b5b61139a868287016112fd565b93505060206113ab86828701610f1c565b92505060406113bc86828701611342565b9150509250925092565b600060208201905081810360008301526113e08184611027565b905092915050565b7f4e487b7100000000000000000000000000000000000000000000000000000000600052601160045260246000fd5b600061142282610ed1565b91507fffffffffffffffffffffffffffffffffffffffffffffffffffffffffffffffff821415611455576114546113e8565b5b600182019050919050565b7f4e487b7100000000000000000000000000000000000000000000000000000000600052602260045260246000fd5b600060028204905060018216806114a757607f821691505b602082108114156114bb576114ba611460565b5b50919050565b7f4e487b7100000000000000000000000000000000000000000000000000000000600052601260045260246000fd5b60006114fb82610ed1565b915061150683610ed1565b925082611516576115156114c1565b5b828204905092915050565b600081905092915050565b50565b600061153c600083611521565b91506115478261152c565b600082019050919050565b600061155d8261152f565b9150819050919050565b7f4661696c656420746f2073656e64204574686572000000000000000000000000600082015250565b600061159d601483610fd2565b91506115a882611567565b602082019050919050565b600060208201905081810360008301526115cc81611590565b9050919050565b60006115de82610ed1565b915060008214156115f2576115f16113e8565b5b60018203905091905056fea26469706673582212204ae69a6365e56e2a6bc03bfab7de1854d00541f74f8d9cb708ac2dad9fa6d43c64736f6c63430008090033a264697066735822122049c8e53921330dc59f1a1c019b835d49dc5bfdbeacdbd7b19cab681e54325dae64736f6c63430008090033",
  "immutableReferences": {},
  "source": "pragma solidity ^0.8.9;\r\n\r\ncontract Crowdfunding{\r\n    \r\n    uint public totalCampaigns = 0;\r\n    address[] public campaigns;\r\n    string[] public pTitles;\r\n\r\n    function createFundraiser(uint minimumCon,string memory campaignName, uint reqamount) public{\r\n        Fundraiser myCampaign = new Fundraiser(minimumCon,campaignName,reqamount, msg.sender);\r\n        campaigns.push(address(myCampaign));\r\n        pTitles.push(campaignName);\r\n        totalCampaigns = totalCampaigns + 1;\r\n    }\r\n    \r\n    function retriveCampaigns() public view returns(address[] memory){\r\n        return campaigns;\r\n    }\r\n\r\n    function retrivepTitles() public view returns(string[] memory){\r\n        return pTitles;\r\n    }\r\n}\r\n\r\ncontract Fundraiser{\r\n    struct Request{\r\n        address payable recipient;\r\n        string description;\r\n        bool complete;\r\n        uint value;\r\n        mapping(address => uint8) voters;\r\n        uint totalPositives;\r\n        uint totalNegatives;\r\n    }\r\n    \r\n    \r\n    address public innovator; \r\n    uint public minimumContribution;\r\n    uint public totalContributers;\r\n    string public projectTitle;\r\n    uint public requiredAmount;\r\n    mapping(address => uint8) public contributors;\r\n    mapping(uint => Request) public requests;\r\n    uint public requestsCounter;                   // total Requests\r\n    uint public totalIncompleteRequests;\r\n\r\n    constructor(uint minimumCon, string memory ptitle, uint reqamount, address innovatorAddress){\r\n        minimumContribution = minimumCon;\r\n        innovator = innovatorAddress;\r\n        requestsCounter = 0;\r\n        totalIncompleteRequests = 0;\r\n        projectTitle = ptitle;\r\n        requiredAmount = reqamount;\r\n\r\n    }\r\n    \r\n    \r\n    modifier isInnovator() {\r\n        require(msg.sender == innovator);\r\n        _;\r\n    }\r\n    \r\n    modifier isContributer(){\r\n        require(contributors[msg.sender] == 1);\r\n        _;\r\n    }\r\n\r\n    function getVoters(uint requestNum, address voterAddress) public view returns(uint8){\r\n        return requests[requestNum].voters[voterAddress];\r\n    }\r\n    \r\n    function contribute() public payable{   // contribute\r\n        require(msg.value >= minimumContribution);\r\n        require(contributors[msg.sender] != 1);\r\n        contributors[msg.sender] = 1;\r\n        totalContributers++;\r\n    }\r\n\r\n    function getInfo() public view returns(string memory, address, uint, uint, uint, uint, uint, uint){\r\n        return(\r\n            projectTitle,\r\n            innovator,\r\n            address(this).balance,\r\n            minimumContribution,\r\n            totalContributers,\r\n            requiredAmount,\r\n            requestsCounter,\r\n            totalIncompleteRequests\r\n        );\r\n    }\r\n    \r\n    // innovator/manager will use this function\r\n    function createRequest(string memory description, uint value, address payable recipient) public isInnovator{\r\n        require(totalIncompleteRequests < 10);\r\n        \r\n        Request storage newRequest = requests[requestsCounter++];\r\n        newRequest.totalPositives = 0;\r\n        newRequest.totalNegatives = 0;\r\n        newRequest.description = description;\r\n        newRequest.complete = false;\r\n        newRequest.value = value;\r\n        newRequest.recipient = recipient;\r\n        // requestsCounter++;\r\n        totalIncompleteRequests++;\r\n    }\r\n    \r\n    // 1 => true 2 => false\r\n    function voteRequest(uint index, uint8 vote) public isContributer{\r\n\r\n        require(contributors[msg.sender] == 1);\r\n        require(requests[index].voters[msg.sender] != 1 && requests[index].voters[msg.sender] != 2);\r\n        \r\n        requests[index].voters[msg.sender] = vote;\r\n        if(vote == 1){\r\n            requests[index].totalPositives++;\r\n        }else if(vote == 2){\r\n            requests[index].totalNegatives++;\r\n        }\r\n    }\r\n    \r\n    function confirmRequest(uint index) public payable isInnovator{\r\n        require(requests[index].totalPositives >= (totalContributers/2));\r\n        require(requests[index].complete == false);\r\n        \r\n        (bool sent,) = requests[index].recipient.call{value: requests[index].value}(\"\");\r\n        // requests[index].recipient.transfer(requests[index].value);\r\n        \r\n        require(sent, \"Failed to send Ether\");\r\n        requests[index].complete = true;\r\n        totalIncompleteRequests--;\r\n    }\r\n\r\n}",
  "sourcePath": "F:\\Etherium_DAPPs\\FundRaiser_Project_IBC\\contracts\\FundRaiser.sol",
  "compiler": {
    "name": "solc",
    "version": "0.8.9+commit.e5eed63a.Emscripten.clang"
  },
  "schemaVersion": "3.4.3",
  "updatedAt": "2021-12-12T15:02:40.310Z",
  "networkType": "ethereum",
  "devdoc": {
    "kind": "dev",
    "methods": {},
    "version": 1
  },
  "userdoc": {
    "kind": "user",
    "methods": {},
    "version": 1
  }
}