{
  "contractName": "Fundraiser",
  "abi": [
    {
      "inputs": [
        {
          "internalType": "uint256",
          "name": "minimumCon",
          "type": "uint256"
        },
        {
          "internalType": "string",
          "name": "ptitle",
          "type": "string"
        },
        {
          "internalType": "uint256",
          "name": "reqamount",
          "type": "uint256"
        },
        {
          "internalType": "address",
          "name": "innovatorAddress",
          "type": "address"
        }
      ],
      "stateMutability": "nonpayable",
      "type": "constructor"
    },
    {
      "inputs": [
        {
          "internalType": "address",
          "name": "",
          "type": "address"
        }
      ],
      "name": "contributors",
      "outputs": [
        {
          "internalType": "uint8",
          "name": "",
          "type": "uint8"
        }
      ],
      "stateMutability": "view",
      "type": "function"
    },
    {
      "inputs": [],
      "name": "innovator",
      "outputs": [
        {
          "internalType": "address",
          "name": "",
          "type": "address"
        }
      ],
      "stateMutability": "view",
      "type": "function"
    },
    {
      "inputs": [],
      "name": "minimumContribution",
      "outputs": [
        {
          "internalType": "uint256",
          "name": "",
          "type": "uint256"
        }
      ],
      "stateMutability": "view",
      "type": "function"
    },
    {
      "inputs": [],
      "name": "projectTitle",
      "outputs": [
        {
          "internalType": "string",
          "name": "",
          "type": "string"
        }
      ],
      "stateMutability": "view",
      "type": "function"
    },
    {
      "inputs": [
        {
          "internalType": "uint256",
          "name": "",
          "type": "uint256"
        }
      ],
      "name": "requests",
      "outputs": [
        {
          "internalType": "address payable",
          "name": "recipient",
          "type": "address"
        },
        {
          "internalType": "string",
          "name": "description",
          "type": "string"
        },
        {
          "internalType": "bool",
          "name": "complete",
          "type": "bool"
        },
        {
          "internalType": "uint256",
          "name": "value",
          "type": "uint256"
        },
        {
          "internalType": "uint256",
          "name": "totalPositives",
          "type": "uint256"
        },
        {
          "internalType": "uint256",
          "name": "totalNegatives",
          "type": "uint256"
        }
      ],
      "stateMutability": "view",
      "type": "function"
    },
    {
      "inputs": [],
      "name": "requestsCounter",
      "outputs": [
        {
          "internalType": "uint256",
          "name": "",
          "type": "uint256"
        }
      ],
      "stateMutability": "view",
      "type": "function"
    },
    {
      "inputs": [],
      "name": "requiredAmount",
      "outputs": [
        {
          "internalType": "uint256",
          "name": "",
          "type": "uint256"
        }
      ],
      "stateMutability": "view",
      "type": "function"
    },
    {
      "inputs": [],
      "name": "totalContributers",
      "outputs": [
        {
          "internalType": "uint256",
          "name": "",
          "type": "uint256"
        }
      ],
      "stateMutability": "view",
      "type": "function"
    },
    {
      "inputs": [],
      "name": "totalIncompleteRequests",
      "outputs": [
        {
          "internalType": "uint256",
          "name": "",
          "type": "uint256"
        }
      ],
      "stateMutability": "view",
      "type": "function"
    },
    {
      "inputs": [
        {
          "internalType": "uint256",
          "name": "requestNum",
          "type": "uint256"
        },
        {
          "internalType": "address",
          "name": "voterAddress",
          "type": "address"
        }
      ],
      "name": "getVoters",
      "outputs": [
        {
          "internalType": "uint8",
          "name": "",
          "type": "uint8"
        }
      ],
      "stateMutability": "view",
      "type": "function"
    },
    {
      "inputs": [],
      "name": "contribute",
      "outputs": [],
      "stateMutability": "payable",
      "type": "function"
    },
    {
      "inputs": [],
      "name": "getInfo",
      "outputs": [
        {
          "internalType": "string",
          "name": "",
          "type": "string"
        },
        {
          "internalType": "address",
          "name": "",
          "type": "address"
        },
        {
          "internalType": "uint256",
          "name": "",
          "type": "uint256"
        },
        {
          "internalType": "uint256",
          "name": "",
          "type": "uint256"
        },
        {
          "internalType": "uint256",
          "name": "",
          "type": "uint256"
        },
        {
          "internalType": "uint256",
          "name": "",
          "type": "uint256"
        },
        {
          "internalType": "uint256",
          "name": "",
          "type": "uint256"
        },
        {
          "internalType": "uint256",
          "name": "",
          "type": "uint256"
        }
      ],
      "stateMutability": "view",
      "type": "function"
    },
    {
      "inputs": [
        {
          "internalType": "string",
          "name": "description",
          "type": "string"
        },
        {
          "internalType": "uint256",
          "name": "value",
          "type": "uint256"
        },
        {
          "internalType": "address payable",
          "name": "recipient",
          "type": "address"
        }
      ],
      "name": "createRequest",
      "outputs": [],
      "stateMutability": "nonpayable",
      "type": "function"
    },
    {
      "inputs": [
        {
          "internalType": "uint256",
          "name": "index",
          "type": "uint256"
        },
        {
          "internalType": "uint8",
          "name": "vote",
          "type": "uint8"
        }
      ],
      "name": "voteRequest",
      "outputs": [],
      "stateMutability": "nonpayable",
      "type": "function"
    },
    {
      "inputs": [
        {
          "internalType": "uint256",
          "name": "index",
          "type": "uint256"
        }
      ],
      "name": "confirmRequest",
      "outputs": [],
      "stateMutability": "payable",
      "type": "function"
    }
  ],
  "bytecode": "0x60806040523480156200001157600080fd5b5060405162001ade38038062001ade8339818101604052810190620000379190620003a5565b83600181905550806000806101000a81548173ffffffffffffffffffffffffffffffffffffffff021916908373ffffffffffffffffffffffffffffffffffffffff160217905550600060078190555060006008819055508260039080519060200190620000a6929190620000b8565b5081600481905550505050506200049b565b828054620000c69062000465565b90600052602060002090601f016020900481019282620000ea576000855562000136565b82601f106200010557805160ff191683800117855562000136565b8280016001018555821562000136579182015b828111156200013557825182559160200191906001019062000118565b5b50905062000145919062000149565b5090565b5b80821115620001645760008160009055506001016200014a565b5090565b6000604051905090565b600080fd5b600080fd5b6000819050919050565b62000191816200017c565b81146200019d57600080fd5b50565b600081519050620001b18162000186565b92915050565b600080fd5b600080fd5b6000601f19601f8301169050919050565b7f4e487b7100000000000000000000000000000000000000000000000000000000600052604160045260246000fd5b6200020c82620001c1565b810181811067ffffffffffffffff821117156200022e576200022d620001d2565b5b80604052505050565b60006200024362000168565b905062000251828262000201565b919050565b600067ffffffffffffffff821115620002745762000273620001d2565b5b6200027f82620001c1565b9050602081019050919050565b60005b83811015620002ac5780820151818401526020810190506200028f565b83811115620002bc576000848401525b50505050565b6000620002d9620002d38462000256565b62000237565b905082815260208101848484011115620002f857620002f7620001bc565b5b620003058482856200028c565b509392505050565b600082601f830112620003255762000324620001b7565b5b815162000337848260208601620002c2565b91505092915050565b600073ffffffffffffffffffffffffffffffffffffffff82169050919050565b60006200036d8262000340565b9050919050565b6200037f8162000360565b81146200038b57600080fd5b50565b6000815190506200039f8162000374565b92915050565b60008060008060808587031215620003c257620003c162000172565b5b6000620003d287828801620001a0565b945050602085015167ffffffffffffffff811115620003f657620003f562000177565b5b62000404878288016200030d565b93505060406200041787828801620001a0565b92505060606200042a878288016200038e565b91505092959194509250565b7f4e487b7100000000000000000000000000000000000000000000000000000000600052602260045260246000fd5b600060028204905060018216806200047e57607f821691505b6020821081141562000495576200049462000436565b5b50919050565b61163380620004ab6000396000f3fe6080604052600436106100e85760003560e01c80636efa711e1161008a578063937e09b111610059578063937e09b114610304578063a6b2c4371461032f578063c3e20c9f1461034b578063d7bb99ba14610376576100e8565b80636efa711e1461023157806371d636711461026e57806381d12c58146102995780638a9cfd55146102db576100e8565b80635357a94a116100c65780635357a94a1461017e5780635a9b0b89146101a9578063663c2269146101db578063688ae49614610206576100e8565b80631f6d4942146100ed57806348b9ef401461012a5780634df9d55814610155575b600080fd5b3480156100f957600080fd5b50610114600480360381019061010f9190610e6d565b610380565b6040516101219190610eb6565b60405180910390f35b34801561013657600080fd5b5061013f6103a0565b60405161014c9190610eea565b60405180910390f35b34801561016157600080fd5b5061017c60048036038101906101779190610f5d565b6103a6565b005b34801561018a57600080fd5b50610193610626565b6040516101a09190610fac565b60405180910390f35b3480156101b557600080fd5b506101be61064a565b6040516101d2989796959493929190611060565b60405180910390f35b3480156101e757600080fd5b506101f0610730565b6040516101fd9190610eea565b60405180910390f35b34801561021257600080fd5b5061021b610736565b6040516102289190610eea565b60405180910390f35b34801561023d57600080fd5b50610258600480360381019061025391906110e5565b61073c565b6040516102659190610eb6565b60405180910390f35b34801561027a57600080fd5b506102836107a7565b6040516102909190610eea565b60405180910390f35b3480156102a557600080fd5b506102c060048036038101906102bb9190611125565b6107ad565b6040516102d29695949392919061118e565b60405180910390f35b3480156102e757600080fd5b5061030260048036038101906102fd9190611357565b61089e565b005b34801561031057600080fd5b506103196109e6565b6040516103269190610eea565b60405180910390f35b61034960048036038101906103449190611125565b6109ec565b005b34801561035757600080fd5b50610360610beb565b60405161036d91906113c6565b60405180910390f35b61037e610c79565b005b60056020528060005260406000206000915054906101000a900460ff1681565b60045481565b6001600560003373ffffffffffffffffffffffffffffffffffffffff1673ffffffffffffffffffffffffffffffffffffffff16815260200190815260200160002060009054906101000a900460ff1660ff161461040257600080fd5b6001600560003373ffffffffffffffffffffffffffffffffffffffff1673ffffffffffffffffffffffffffffffffffffffff16815260200190815260200160002060009054906101000a900460ff1660ff161461045e57600080fd5b60016006600084815260200190815260200160002060040160003373ffffffffffffffffffffffffffffffffffffffff1673ffffffffffffffffffffffffffffffffffffffff16815260200190815260200160002060009054906101000a900460ff1660ff1614158015610536575060026006600084815260200190815260200160002060040160003373ffffffffffffffffffffffffffffffffffffffff1673ffffffffffffffffffffffffffffffffffffffff16815260200190815260200160002060009054906101000a900460ff1660ff1614155b61053f57600080fd5b806006600084815260200190815260200160002060040160003373ffffffffffffffffffffffffffffffffffffffff1673ffffffffffffffffffffffffffffffffffffffff16815260200190815260200160002060006101000a81548160ff021916908360ff16021790555060018160ff1614156105e8576006600083815260200190815260200160002060050160008154809291906105de90611417565b9190505550610622565b60028160ff1614156106215760066000838152602001908152602001600020600601600081548092919061061b90611417565b91905055505b5b5050565b60008054906101000a900473ffffffffffffffffffffffffffffffffffffffff1681565b60606000806000806000806000600360008054906101000a900473ffffffffffffffffffffffffffffffffffffffff16476001546002546004546007546008548780546106969061148f565b80601f01602080910402602001604051908101604052809291908181526020018280546106c29061148f565b801561070f5780601f106106e45761010080835404028352916020019161070f565b820191906000526020600020905b8154815290600101906020018083116106f257829003601f168201915b50505050509750975097509750975097509750975097509091929394959697565b60075481565b60025481565b60006006600084815260200190815260200160002060040160008373ffffffffffffffffffffffffffffffffffffffff1673ffffffffffffffffffffffffffffffffffffffff16815260200190815260200160002060009054906101000a900460ff16905092915050565b60085481565b60066020528060005260406000206000915090508060000160009054906101000a900473ffffffffffffffffffffffffffffffffffffffff16908060010180546107f69061148f565b80601f01602080910402602001604051908101604052809291908181526020018280546108229061148f565b801561086f5780601f106108445761010080835404028352916020019161086f565b820191906000526020600020905b81548152906001019060200180831161085257829003601f168201915b5050505050908060020160009054906101000a900460ff16908060030154908060050154908060060154905086565b60008054906101000a900473ffffffffffffffffffffffffffffffffffffffff1673ffffffffffffffffffffffffffffffffffffffff163373ffffffffffffffffffffffffffffffffffffffff16146108f657600080fd5b600a6008541061090557600080fd5b6000600660006007600081548092919061091e90611417565b919050558152602001908152602001600020905060008160050181905550600081600601819055508381600101908051906020019061095e929190610d58565b5060008160020160006101000a81548160ff021916908315150217905550828160030181905550818160000160006101000a81548173ffffffffffffffffffffffffffffffffffffffff021916908373ffffffffffffffffffffffffffffffffffffffff160217905550600860008154809291906109db90611417565b919050555050505050565b60015481565b60008054906101000a900473ffffffffffffffffffffffffffffffffffffffff1673ffffffffffffffffffffffffffffffffffffffff163373ffffffffffffffffffffffffffffffffffffffff1614610a4457600080fd5b60028054610a5291906114f0565b60066000838152602001908152602001600020600501541015610a7457600080fd5b600015156006600083815260200190815260200160002060020160009054906101000a900460ff16151514610aa857600080fd5b60006006600083815260200190815260200160002060000160009054906101000a900473ffffffffffffffffffffffffffffffffffffffff1673ffffffffffffffffffffffffffffffffffffffff166006600084815260200190815260200160002060030154604051610b1a90611552565b60006040518083038185875af1925050503d8060008114610b57576040519150601f19603f3d011682016040523d82523d6000602084013e610b5c565b606091505b5050905080610ba0576040517f08c379a0000000000000000000000000000000000000000000000000000000008152600401610b97906115b3565b60405180910390fd5b60016006600084815260200190815260200160002060020160006101000a81548160ff02191690831515021790555060086000815480929190610be2906115d3565b91905055505050565b60038054610bf89061148f565b80601f0160208091040260200160405190810160405280929190818152602001828054610c249061148f565b8015610c715780601f10610c4657610100808354040283529160200191610c71565b820191906000526020600020905b815481529060010190602001808311610c5457829003601f168201915b505050505081565b600154341015610c8857600080fd5b6001600560003373ffffffffffffffffffffffffffffffffffffffff1673ffffffffffffffffffffffffffffffffffffffff16815260200190815260200160002060009054906101000a900460ff1660ff161415610ce557600080fd5b6001600560003373ffffffffffffffffffffffffffffffffffffffff1673ffffffffffffffffffffffffffffffffffffffff16815260200190815260200160002060006101000a81548160ff021916908360ff16021790555060026000815480929190610d5190611417565b9190505550565b828054610d649061148f565b90600052602060002090601f016020900481019282610d865760008555610dcd565b82601f10610d9f57805160ff1916838001178555610dcd565b82800160010185558215610dcd579182015b82811115610dcc578251825591602001919060010190610db1565b5b509050610dda9190610dde565b5090565b5b80821115610df7576000816000905550600101610ddf565b5090565b6000604051905090565b600080fd5b600080fd5b600073ffffffffffffffffffffffffffffffffffffffff82169050919050565b6000610e3a82610e0f565b9050919050565b610e4a81610e2f565b8114610e5557600080fd5b50565b600081359050610e6781610e41565b92915050565b600060208284031215610e8357610e82610e05565b5b6000610e9184828501610e58565b91505092915050565b600060ff82169050919050565b610eb081610e9a565b82525050565b6000602082019050610ecb6000830184610ea7565b92915050565b6000819050919050565b610ee481610ed1565b82525050565b6000602082019050610eff6000830184610edb565b92915050565b610f0e81610ed1565b8114610f1957600080fd5b50565b600081359050610f2b81610f05565b92915050565b610f3a81610e9a565b8114610f4557600080fd5b50565b600081359050610f5781610f31565b92915050565b60008060408385031215610f7457610f73610e05565b5b6000610f8285828601610f1c565b9250506020610f9385828601610f48565b9150509250929050565b610fa681610e2f565b82525050565b6000602082019050610fc16000830184610f9d565b92915050565b600081519050919050565b600082825260208201905092915050565b60005b83811015611001578082015181840152602081019050610fe6565b83811115611010576000848401525b50505050565b6000601f19601f8301169050919050565b600061103282610fc7565b61103c8185610fd2565b935061104c818560208601610fe3565b61105581611016565b840191505092915050565b600061010082019050818103600083015261107b818b611027565b905061108a602083018a610f9d565b6110976040830189610edb565b6110a46060830188610edb565b6110b16080830187610edb565b6110be60a0830186610edb565b6110cb60c0830185610edb565b6110d860e0830184610edb565b9998505050505050505050565b600080604083850312156110fc576110fb610e05565b5b600061110a85828601610f1c565b925050602061111b85828601610e58565b9150509250929050565b60006020828403121561113b5761113a610e05565b5b600061114984828501610f1c565b91505092915050565b600061115d82610e0f565b9050919050565b61116d81611152565b82525050565b60008115159050919050565b61118881611173565b82525050565b600060c0820190506111a36000830189611164565b81810360208301526111b58188611027565b90506111c4604083018761117f565b6111d16060830186610edb565b6111de6080830185610edb565b6111eb60a0830184610edb565b979650505050505050565b600080fd5b600080fd5b7f4e487b7100000000000000000000000000000000000000000000000000000000600052604160045260246000fd5b61123882611016565b810181811067ffffffffffffffff8211171561125757611256611200565b5b80604052505050565b600061126a610dfb565b9050611276828261122f565b919050565b600067ffffffffffffffff82111561129657611295611200565b5b61129f82611016565b9050602081019050919050565b82818337600083830152505050565b60006112ce6112c98461127b565b611260565b9050828152602081018484840111156112ea576112e96111fb565b5b6112f58482856112ac565b509392505050565b600082601f830112611312576113116111f6565b5b81356113228482602086016112bb565b91505092915050565b61133481611152565b811461133f57600080fd5b50565b6000813590506113518161132b565b92915050565b6000806000606084860312156113705761136f610e05565b5b600084013567ffffffffffffffff81111561138e5761138d610e0a565b5b61139a868287016112fd565b93505060206113ab86828701610f1c565b92505060406113bc86828701611342565b9150509250925092565b600060208201905081810360008301526113e08184611027565b905092915050565b7f4e487b7100000000000000000000000000000000000000000000000000000000600052601160045260246000fd5b600061142282610ed1565b91507fffffffffffffffffffffffffffffffffffffffffffffffffffffffffffffffff821415611455576114546113e8565b5b600182019050919050565b7f4e487b7100000000000000000000000000000000000000000000000000000000600052602260045260246000fd5b600060028204905060018216806114a757607f821691505b602082108114156114bb576114ba611460565b5b50919050565b7f4e487b7100000000000000000000000000000000000000000000000000000000600052601260045260246000fd5b60006114fb82610ed1565b915061150683610ed1565b925082611516576115156114c1565b5b828204905092915050565b600081905092915050565b50565b600061153c600083611521565b91506115478261152c565b600082019050919050565b600061155d8261152f565b9150819050919050565b7f4661696c656420746f2073656e64204574686572000000000000000000000000600082015250565b600061159d601483610fd2565b91506115a882611567565b602082019050919050565b600060208201905081810360008301526115cc81611590565b9050919050565b60006115de82610ed1565b915060008214156115f2576115f16113e8565b5b60018203905091905056fea26469706673582212204ae69a6365e56e2a6bc03bfab7de1854d00541f74f8d9cb708ac2dad9fa6d43c64736f6c63430008090033",
  "immutableReferences": {},
  "source": "pragma solidity ^0.8.9;\r\n\r\ncontract Crowdfunding{\r\n    \r\n    uint public totalCampaigns = 0;\r\n    address[] public campaigns;\r\n    string[] public pTitles;\r\n\r\n    function createFundraiser(uint minimumCon,string memory campaignName, uint reqamount) public{\r\n        Fundraiser myCampaign = new Fundraiser(minimumCon,campaignName,reqamount, msg.sender);\r\n        campaigns.push(address(myCampaign));\r\n        pTitles.push(campaignName);\r\n        totalCampaigns = totalCampaigns + 1;\r\n    }\r\n    \r\n    function retriveCampaigns() public view returns(address[] memory){\r\n        return campaigns;\r\n    }\r\n\r\n    function retrivepTitles() public view returns(string[] memory){\r\n        return pTitles;\r\n    }\r\n}\r\n\r\ncontract Fundraiser{\r\n    struct Request{\r\n        address payable recipient;\r\n        string description;\r\n        bool complete;\r\n        uint value;\r\n        mapping(address => uint8) voters;\r\n        uint totalPositives;\r\n        uint totalNegatives;\r\n    }\r\n    \r\n    \r\n    address public innovator; \r\n    uint public minimumContribution;\r\n    uint public totalContributers;\r\n    string public projectTitle;\r\n    uint public requiredAmount;\r\n    mapping(address => uint8) public contributors;\r\n    mapping(uint => Request) public requests;\r\n    uint public requestsCounter;                   // total Requests\r\n    uint public totalIncompleteRequests;\r\n\r\n    constructor(uint minimumCon, string memory ptitle, uint reqamount, address innovatorAddress){\r\n        minimumContribution = minimumCon;\r\n        innovator = innovatorAddress;\r\n        requestsCounter = 0;\r\n        totalIncompleteRequests = 0;\r\n        projectTitle = ptitle;\r\n        requiredAmount = reqamount;\r\n\r\n    }\r\n    \r\n    \r\n    modifier isInnovator() {\r\n        require(msg.sender == innovator);\r\n        _;\r\n    }\r\n    \r\n    modifier isContributer(){\r\n        require(contributors[msg.sender] == 1);\r\n        _;\r\n    }\r\n\r\n    function getVoters(uint requestNum, address voterAddress) public view returns(uint8){\r\n        return requests[requestNum].voters[voterAddress];\r\n    }\r\n    \r\n    function contribute() public payable{   // contribute\r\n        require(msg.value >= minimumContribution);\r\n        require(contributors[msg.sender] != 1);\r\n        contributors[msg.sender] = 1;\r\n        totalContributers++;\r\n    }\r\n\r\n    function getInfo() public view returns(string memory, address, uint, uint, uint, uint, uint, uint){\r\n        return(\r\n            projectTitle,\r\n            innovator,\r\n            address(this).balance,\r\n            minimumContribution,\r\n            totalContributers,\r\n            requiredAmount,\r\n            requestsCounter,\r\n            totalIncompleteRequests\r\n        );\r\n    }\r\n    \r\n    // innovator/manager will use this function\r\n    function createRequest(string memory description, uint value, address payable recipient) public isInnovator{\r\n        require(totalIncompleteRequests < 10);\r\n        \r\n        Request storage newRequest = requests[requestsCounter++];\r\n        newRequest.totalPositives = 0;\r\n        newRequest.totalNegatives = 0;\r\n        newRequest.description = description;\r\n        newRequest.complete = false;\r\n        newRequest.value = value;\r\n        newRequest.recipient = recipient;\r\n        // requestsCounter++;\r\n        totalIncompleteRequests++;\r\n    }\r\n    \r\n    // 1 => true 2 => false\r\n    function voteRequest(uint index, uint8 vote) public isContributer{\r\n\r\n        require(contributors[msg.sender] == 1);\r\n        require(requests[index].voters[msg.sender] != 1 && requests[index].voters[msg.sender] != 2);\r\n        \r\n        requests[index].voters[msg.sender] = vote;\r\n        if(vote == 1){\r\n            requests[index].totalPositives++;\r\n        }else if(vote == 2){\r\n            requests[index].totalNegatives++;\r\n        }\r\n    }\r\n    \r\n    function confirmRequest(uint index) public payable isInnovator{\r\n        require(requests[index].totalPositives >= (totalContributers/2));\r\n        require(requests[index].complete == false);\r\n        \r\n        (bool sent,) = requests[index].recipient.call{value: requests[index].value}(\"\");\r\n        // requests[index].recipient.transfer(requests[index].value);\r\n        \r\n        require(sent, \"Failed to send Ether\");\r\n        requests[index].complete = true;\r\n        totalIncompleteRequests--;\r\n    }\r\n\r\n}",
  "sourcePath": "F:\\Etherium_DAPPs\\FundRaiser_Project_IBC\\contracts\\FundRaiser.sol",
  "compiler": {
    "name": "solc",
    "version": "0.8.9+commit.e5eed63a.Emscripten.clang"
  },
  "schemaVersion": "3.4.3",
  "updatedAt": "2021-12-12T14:59:21.066Z",
  "devdoc": {
    "kind": "dev",
    "methods": {},
    "version": 1
  },
  "userdoc": {
    "kind": "user",
    "methods": {},
    "version": 1
  }
}